:020000040000FA
:020000003628A0
:08000800A000030E8301A1001A
:1000100000000B11CC308100A20B17282930A20060
:100020002B142408A7002508A8002608A900A70863
:10003000031D1C2823101E28A70B2314A808031D2A
:100040002328A3102528A80BA314A908031D2A28D8
:1000500023112C28A90B23152308AB1823090739D2
:100060008500210E8300A00E200E09008316FF23B9
:10007000900088308100A0308B00831281018501BF
:1000800007309900831618309F00203095003830D3
:1000900085008312AB010D309F002930A200AB0117
:1000A0002408A7002508A8002608A9008519AB1474
:1000B00081012B1C59289F149F185C282B101E08A7
:1000C000851EFF3CAA00D6302A02031C6C28A6001D
:1000D0002930A400A5005928AC302A02031C752839
:1000E000A5002930A400A601592882302A02031C49
:1000F0007D28A400A501A60159287E302A02031CF0
:100100008528A401A501A601592854302A02031C00
:100110008E28293CA600A401A50159282A302A02CC
:10012000031C9828293CA4002930A600A5015928C1
:100130002A08A400293CA5002930A60059285928DE
:02400E00C43FAD
:00000001FF
